{
  "abi": [
    {
      "inputs": [
        {
          "internalType": "uint256",
          "name": "_numOfConfirmationsRequired",
          "type": "uint256"
        },
        {
          "internalType": "address[]",
          "name": "_approvers",
          "type": "address[]"
        },
        {
          "internalType": "address",
          "name": "_owner",
          "type": "address"
        }
      ],
      "stateMutability": "nonpayable",
      "type": "constructor"
    },
    {
      "anonymous": false,
      "inputs": [
        {
          "indexed": false,
          "internalType": "address",
          "name": "_depositor",
          "type": "address"
        },
        {
          "indexed": false,
          "internalType": "uint256",
          "name": "_amount",
          "type": "uint256"
        }
      ],
      "name": "MoneyDeposited",
      "type": "event"
    },
    {
      "anonymous": false,
      "inputs": [
        {
          "indexed": false,
          "internalType": "uint256",
          "name": "_amount",
          "type": "uint256"
        }
      ],
      "name": "TransactionCompletelyApproved",
      "type": "event"
    },
    {
      "anonymous": false,
      "inputs": [
        {
          "indexed": false,
          "internalType": "uint256",
          "name": "_txIndex",
          "type": "uint256"
        },
        {
          "indexed": false,
          "internalType": "uint256",
          "name": "_amount",
          "type": "uint256"
        }
      ],
      "name": "TransactionCompletelyRevoked",
      "type": "event"
    },
    {
      "anonymous": false,
      "inputs": [
        {
          "indexed": false,
          "internalType": "address",
          "name": "_owner",
          "type": "address"
        },
        {
          "indexed": false,
          "internalType": "uint256",
          "name": "_amount",
          "type": "uint256"
        }
      ],
      "name": "TransactionCompletelySucceeded",
      "type": "event"
    },
    {
      "anonymous": false,
      "inputs": [
        {
          "indexed": false,
          "internalType": "address",
          "name": "_owner",
          "type": "address"
        },
        {
          "indexed": false,
          "internalType": "address",
          "name": "_to",
          "type": "address"
        },
        {
          "indexed": false,
          "internalType": "uint256",
          "name": "_amount",
          "type": "uint256"
        }
      ],
      "name": "TransactionInitiated",
      "type": "event"
    },
    {
      "anonymous": false,
      "inputs": [
        {
          "indexed": false,
          "internalType": "address",
          "name": "_owner",
          "type": "address"
        },
        {
          "indexed": false,
          "internalType": "uint256",
          "name": "_amount",
          "type": "uint256"
        },
        {
          "indexed": false,
          "internalType": "uint256",
          "name": "_confirmationsDone",
          "type": "uint256"
        }
      ],
      "name": "TransactionPartiallyApproved",
      "type": "event"
    },
    {
      "anonymous": false,
      "inputs": [
        {
          "indexed": false,
          "internalType": "uint256",
          "name": "_txIndex",
          "type": "uint256"
        },
        {
          "indexed": false,
          "internalType": "address",
          "name": "owner",
          "type": "address"
        }
      ],
      "name": "TransactionPartiallyRevoked",
      "type": "event"
    },
    {
      "inputs": [
        {
          "internalType": "uint256",
          "name": "_txIndex",
          "type": "uint256"
        }
      ],
      "name": "approveTransaction",
      "outputs": [],
      "stateMutability": "nonpayable",
      "type": "function"
    },
    {
      "inputs": [
        {
          "internalType": "address",
          "name": "_to",
          "type": "address"
        },
        {
          "internalType": "uint256",
          "name": "_amount",
          "type": "uint256"
        },
        {
          "internalType": "bytes",
          "name": "_data",
          "type": "bytes"
        }
      ],
      "name": "initiateTransaction",
      "outputs": [],
      "stateMutability": "nonpayable",
      "type": "function"
    },
    {
      "inputs": [],
      "name": "numOfConfirmationsRequired",
      "outputs": [
        {
          "internalType": "uint256",
          "name": "",
          "type": "uint256"
        }
      ],
      "stateMutability": "view",
      "type": "function"
    },
    {
      "inputs": [],
      "name": "owner",
      "outputs": [
        {
          "internalType": "address",
          "name": "",
          "type": "address"
        }
      ],
      "stateMutability": "view",
      "type": "function"
    },
    {
      "inputs": [
        {
          "internalType": "uint256",
          "name": "_txIndex",
          "type": "uint256"
        }
      ],
      "name": "revokeTransaction",
      "outputs": [],
      "stateMutability": "nonpayable",
      "type": "function"
    },
    {
      "inputs": [
        {
          "internalType": "uint256",
          "name": "",
          "type": "uint256"
        }
      ],
      "name": "transactions",
      "outputs": [
        {
          "internalType": "uint256",
          "name": "transactionIndex",
          "type": "uint256"
        },
        {
          "internalType": "address",
          "name": "to",
          "type": "address"
        },
        {
          "internalType": "uint256",
          "name": "amount",
          "type": "uint256"
        },
        {
          "internalType": "uint256",
          "name": "initiationTime",
          "type": "uint256"
        },
        {
          "internalType": "uint256",
          "name": "confirmationsDone",
          "type": "uint256"
        },
        {
          "internalType": "bytes",
          "name": "data",
          "type": "bytes"
        },
        {
          "internalType": "bool",
          "name": "executed",
          "type": "bool"
        }
      ],
      "stateMutability": "view",
      "type": "function"
    },
    {
      "stateMutability": "payable",
      "type": "receive"
    }
  ],
  "bytecode": {
    "object": "0x60a06040523480156200001157600080fd5b50604051620013ab380380620013ab83398101604081905262000034916200024f565b600380546001600160a01b0319166001600160a01b038316179055821562000211576000808411801562000069575082518411155b905080620000f25760405162461bcd60e51b815260206004820152604560248201527f506c6561736520656e7465722076616c6964206e756d626572206f6620636f6e60448201527f6669726d6174696f6e7320726571756972656420666f722061207472616e736160648201526431ba34b7b760d91b608482015260a4015b60405180910390fd5b825160005b818110156200020d57600085828151811062000117576200011762000341565b6020026020010151905060006001600160a01b0316816001600160a01b031603620001785760405162461bcd60e51b815260206004820152601060248201526f24b73b30b634b21020b8383937bb32b960811b6044820152606401620000e9565b6001600160a01b03811660009081526001602052604090205460ff16620001e25760405162461bcd60e51b815260206004820152601360248201527f417070726f766572206e6f7420756e69717565000000000000000000000000006044820152606401620000e9565b6001600160a01b03166000908152600160208190526040909120805460ff19168217905501620000f7565b5050505b505060805262000357565b634e487b7160e01b600052604160045260246000fd5b80516001600160a01b03811681146200024a57600080fd5b919050565b6000806000606084860312156200026557600080fd5b8351602080860151919450906001600160401b03808211156200028757600080fd5b818701915087601f8301126200029c57600080fd5b815181811115620002b157620002b16200021c565b8060051b604051601f19603f83011681018181108582111715620002d957620002d96200021c565b60405291825284820192508381018501918a831115620002f857600080fd5b938501935b828510156200032157620003118562000232565b84529385019392850192620002fd565b809750505050505050620003386040850162000232565b90509250925092565b634e487b7160e01b600052603260045260246000fd5b60805161101d6200038e6000396000818160af015281816101b5015281816104410152818161068d0152610718015261101d6000f3fe6080604052600436106100595760003560e01c80630fe07bb91461009d578063242232d1146100e4578063263a6d7914610106578063735631ad146101265780638da5cb5b146101465780639ace38c21461017e57600080fd5b3661009857604080513381523460208201527f8183e4d4ee059a1213db94a2d1d9486616f49a493fca6f883a302414b5bd9e55910160405180910390a1005b600080fd5b3480156100a957600080fd5b506100d17f000000000000000000000000000000000000000000000000000000000000000081565b6040519081526020015b60405180910390f35b3480156100f057600080fd5b506101046100ff366004610c3b565b6101b1565b005b34801561011257600080fd5b50610104610121366004610c54565b610498565b34801561013257600080fd5b50610104610141366004610c3b565b610714565b34801561015257600080fd5b50600354610166906001600160a01b031681565b6040516001600160a01b0390911681526020016100db565b34801561018a57600080fd5b5061019e610199366004610c3b565b6109c3565b6040516100db9796959493929190610ce9565b60007f0000000000000000000000000000000000000000000000000000000000000000116101fa5760405162461bcd60e51b81526004016101f190610d76565b60405180910390fd5b3360009081526001602081905260409091205460ff161515146102515760405162461bcd60e51b815260206004820152600f60248201526e2737ba1030b71030b8383937bb32b960891b60448201526064016101f1565b6000806004838154811061026757610267610db7565b906000526020600020906007020160030154119050806102d35760405162461bcd60e51b815260206004820152602160248201527f506c6561736520696e6974696174652061206e6577207472616e73616374696f6044820152603760f91b60648201526084016101f1565b600082815260026020908152604080832033845290915290205460ff168061034f5760405162461bcd60e51b815260206004820152602960248201527f596f75206861766520616c726561647920617070726f7665642074686520747260448201526830b739b0b1ba34b7b760b91b60648201526084016101f1565b60008381526002602090815260408083203384529091529020805460ff19166001179055600480548490811061038757610387610db7565b6000918252602082206004600790920201018054916103a583610de3565b91905055507f51a8f65be880aa0b47e1c6579e693c85c213e66130d0cb96361e692aac0ba1af33600485815481106103df576103df610db7565b9060005260206000209060070201600201546004868154811061040457610404610db7565b600091825260209182902060046007909202010154604080516001600160a01b0390951685529184019290925282015260600160405180910390a17f00000000000000000000000000000000000000000000000000000000000000006004848154811061047357610473610db7565b906000526020600020906007020160040154036104935761049383610aaa565b505050565b6000546003546001600160a01b03163314806105045760405162461bcd60e51b815260206004820152602560248201527f4f6e6c79206f776e65722063616e20696e6974616974652061207472616e736160448201526431ba34b7b760d91b60648201526084016101f1565b4785811015806105565760405162461bcd60e51b815260206004820152601f60248201527f4e6f7420456e6f756768204d6f6e657920696e20796f75722077616c6c65740060448201526064016101f1565b60046040518060e00160405280868061056e90610de3565b975081526020018a6001600160a01b031681526020018981526020014281526020016001815260200188888080601f016020809104026020016040519081016040528093929190818152602001838380828437600092018290525093855250505060209182018190528354600180820186559482529082902083516007909202019081559082015192810180546001600160a01b0319166001600160a01b039094169390931790925560408101516002830155606081015160038301556080810151600483015560a0810151909190600582019061064c9082610e9a565b5060c091909101516006909101805491151560ff199283161790556000858152600260209081526040808320338452909152812080549092166001179091557f000000000000000000000000000000000000000000000000000000000000000090036106c0576106bb84610aaa565b61070a565b604080513381526001600160a01b038a1660208201529081018890527f09ff2302f4abda8e8643155ee4bda3d566a5eacf743348474c69bff314d9a1009060600160405180910390a15b5050505050505050565b60007f0000000000000000000000000000000000000000000000000000000000000000116107545760405162461bcd60e51b81526004016101f190610d76565b3360009081526001602081905260409091205460ff161515146107a85760405162461bcd60e51b815260206004820152600c60248201526b2737ba1030b71037bbb732b960a11b60448201526064016101f1565b600080600483815481106107be576107be610db7565b906000526020600020906007020160030154119050806108205760405162461bcd60e51b815260206004820152601860248201527f4e6f207472616e73616374696f6e20746f207265766f6b65000000000000000060448201526064016101f1565b600082815260026020908152604080832033845290915290205460ff168061089c5760405162461bcd60e51b815260206004820152602960248201527f596f752068617665204e4f5420617070726f76656420746865207472616e736160448201526818dd1a5bdb8816515560ba1b60648201526084016101f1565b60008381526002602090815260408083203384529091529020805460ff1916905560048054849081106108d1576108d1610db7565b6000918252602082206004600790920201018054916108ef83610f5a565b9091555050604080518481523360208201527f607f88b4d17cc4438b865d021c3cda0a82852bb4a3c721e301925fa87f80bb91910160405180910390a16004838154811061093f5761093f610db7565b906000526020600020906007020160040154600003610493577f1a45727e15192add0bdabb9e69d3d91c05230ae9fbd484e3b3f9883eed3c8e1b836004858154811061098d5761098d610db7565b9060005260206000209060070201600201546040516109b6929190918252602082015260400190565b60405180910390a1505050565b600481815481106109d357600080fd5b60009182526020909120600790910201805460018201546002830154600384015460048501546005860180549597506001600160a01b039094169592949193909291610a1e90610e12565b80601f0160208091040260200160405190810160405280929190818152602001828054610a4a90610e12565b8015610a975780601f10610a6c57610100808354040283529160200191610a97565b820191906000526020600020905b815481529060010190602001808311610a7a57829003601f168201915b5050506006909301549192505060ff1687565b600060048281548110610abf57610abf610db7565b6000918252602090912060016007909202010154600480546001600160a01b039092169184908110610af357610af3610db7565b90600052602060002090600702016002015460048481548110610b1857610b18610db7565b9060005260206000209060070201600501604051610b369190610f71565b60006040518083038185875af1925050503d8060008114610b73576040519150601f19603f3d011682016040523d82523d6000602084013e610b78565b606091505b5050905080610bc05760405162461bcd60e51b81526020600482015260146024820152732330b4b632b2103a379039b2b7321022ba3432b960611b60448201526064016101f1565b600354600480547fb0dec83d06d675360e2c94f0ad5d659ba0e1a69d728c59790a1a7e40eb42daff926001600160a01b0316919085908110610c0457610c04610db7565b600091825260209182902060026007909202010154604080516001600160a01b039094168452918301520160405180910390a15050565b600060208284031215610c4d57600080fd5b5035919050565b60008060008060608587031215610c6a57600080fd5b84356001600160a01b0381168114610c8157600080fd5b935060208501359250604085013567ffffffffffffffff80821115610ca557600080fd5b818701915087601f830112610cb957600080fd5b813581811115610cc857600080fd5b886020828501011115610cda57600080fd5b95989497505060200194505050565b8781526000602060018060a01b0389168184015287604084015286606084015285608084015260e060a084015284518060e085015260005b81811015610d3e5786810183015185820161010001528201610d21565b506101009150600082828601015281601f19601f83011685010192505050610d6a60c083018415159052565b98975050505050505050565b60208082526021908201527f416c6c6f77656420666f72206d756c74697369672077616c6c657473206f6e6c6040820152607960f81b606082015260800190565b634e487b7160e01b600052603260045260246000fd5b634e487b7160e01b600052601160045260246000fd5b600060018201610df557610df5610dcd565b5060010190565b634e487b7160e01b600052604160045260246000fd5b600181811c90821680610e2657607f821691505b602082108103610e4657634e487b7160e01b600052602260045260246000fd5b50919050565b601f82111561049357600081815260208120601f850160051c81016020861015610e735750805b601f850160051c820191505b81811015610e9257828155600101610e7f565b505050505050565b815167ffffffffffffffff811115610eb457610eb4610dfc565b610ec881610ec28454610e12565b84610e4c565b602080601f831160018114610efd5760008415610ee55750858301515b600019600386901b1c1916600185901b178555610e92565b600085815260208120601f198616915b82811015610f2c57888601518255948401946001909101908401610f0d565b5085821015610f4a5787850151600019600388901b60f8161c191681555b5050505050600190811b01905550565b600081610f6957610f69610dcd565b506000190190565b6000808354610f7f81610e12565b60018281168015610f975760018114610fac57610fdb565b60ff1984168752821515830287019450610fdb565b8760005260208060002060005b85811015610fd25781548a820152908401908201610fb9565b50505082870194505b5092969550505050505056fea2646970667358221220f043f826bdcfe45b7c87ff9d32dd08ba7d1eb8c8fb67cb179246a58af90a2c1b64736f6c63430008110033",
    "linkReferences": {}
  },
  "methodIdentifiers": {
    "approveTransaction(uint256)": "242232d1",
    "initiateTransaction(address,uint256,bytes)": "263a6d79",
    "numOfConfirmationsRequired()": "0fe07bb9",
    "owner()": "8da5cb5b",
    "revokeTransaction(uint256)": "735631ad",
    "transactions(uint256)": "9ace38c2"
  },
  "id": 8
}